{
    "contractName": "ProductContract",
    "abi": [
        {
            "anonymous": false,
            "inputs": [
                {
                    "indexed": false,
                    "internalType": "string",
                    "name": "barcode",
                    "type": "string"
                },
                {
                    "indexed": false,
                    "internalType": "uint256",
                    "name": "randId",
                    "type": "uint256"
                }
            ],
            "name": "NewProduct",
            "type": "event"
        },
        {
            "anonymous": false,
            "inputs": [
                {
                    "indexed": false,
                    "internalType": "string",
                    "name": "barcode",
                    "type": "string"
                },
                {
                    "indexed": false,
                    "internalType": "string",
                    "name": "lotId",
                    "type": "string"
                },
                {
                    "indexed": false,
                    "internalType": "uint256",
                    "name": "expirationDate",
                    "type": "uint256"
                }
            ],
            "name": "NewTrace",
            "type": "event"
        },
        {
            "anonymous": false,
            "inputs": [
                {
                    "indexed": true,
                    "internalType": "address",
                    "name": "previousOwner",
                    "type": "address"
                },
                {
                    "indexed": true,
                    "internalType": "address",
                    "name": "newOwner",
                    "type": "address"
                }
            ],
            "name": "OwnershipTransferred",
            "type": "event"
        },
        {
            "inputs": [
                {
                    "internalType": "string",
                    "name": "_barcode",
                    "type": "string"
                },
                {
                    "internalType": "string",
                    "name": "_name",
                    "type": "string"
                },
                {
                    "internalType": "string",
                    "name": "_group",
                    "type": "string"
                },
                {
                    "internalType": "string",
                    "name": "_imageUrl",
                    "type": "string"
                }
            ],
            "name": "createNewProduct",
            "outputs": [],
            "stateMutability": "nonpayable",
            "type": "function"
        },
        {
            "inputs": [
                {
                    "internalType": "string",
                    "name": "_barcode",
                    "type": "string"
                },
                {
                    "internalType": "string",
                    "name": "_lotId",
                    "type": "string"
                },
                {
                    "internalType": "uint256",
                    "name": "_expirationDate",
                    "type": "uint256"
                },
                {
                    "internalType": "string",
                    "name": "_jsonData",
                    "type": "string"
                }
            ],
            "name": "createNewTrace",
            "outputs": [],
            "stateMutability": "nonpayable",
            "type": "function"
        },
        {
            "inputs": [
                {
                    "internalType": "string",
                    "name": "_barcode",
                    "type": "string"
                }
            ],
            "name": "getProduct",
            "outputs": [
                {
                    "components": [
                        {
                            "internalType": "string",
                            "name": "Barcode",
                            "type": "string"
                        },
                        {
                            "internalType": "string",
                            "name": "Name",
                            "type": "string"
                        },
                        {
                            "internalType": "string",
                            "name": "Group",
                            "type": "string"
                        },
                        {
                            "internalType": "string",
                            "name": "ImageURL",
                            "type": "string"
                        },
                        {
                            "internalType": "address",
                            "name": "CreatedBy",
                            "type": "address"
                        },
                        {
                            "internalType": "uint256",
                            "name": "randId",
                            "type": "uint256"
                        }
                    ],
                    "internalType": "struct ProductContract.Product",
                    "name": "",
                    "type": "tuple"
                }
            ],
            "stateMutability": "view",
            "type": "function"
        },
        {
            "inputs": [],
            "name": "getProducts",
            "outputs": [
                {
                    "components": [
                        {
                            "internalType": "string",
                            "name": "Barcode",
                            "type": "string"
                        },
                        {
                            "internalType": "string",
                            "name": "Name",
                            "type": "string"
                        },
                        {
                            "internalType": "string",
                            "name": "Group",
                            "type": "string"
                        },
                        {
                            "internalType": "string",
                            "name": "ImageURL",
                            "type": "string"
                        },
                        {
                            "internalType": "address",
                            "name": "CreatedBy",
                            "type": "address"
                        },
                        {
                            "internalType": "uint256",
                            "name": "randId",
                            "type": "uint256"
                        }
                    ],
                    "internalType": "struct ProductContract.Product[]",
                    "name": "",
                    "type": "tuple[]"
                }
            ],
            "stateMutability": "view",
            "type": "function"
        },
        {
            "inputs": [
                {
                    "internalType": "string",
                    "name": "_barcode",
                    "type": "string"
                },
                {
                    "internalType": "string",
                    "name": "_lotId",
                    "type": "string"
                },
                {
                    "internalType": "uint256",
                    "name": "_expirationDate",
                    "type": "uint256"
                }
            ],
            "name": "getTrace",
            "outputs": [
                {
                    "internalType": "string",
                    "name": "",
                    "type": "string"
                }
            ],
            "stateMutability": "view",
            "type": "function"
        },
        {
            "inputs": [],
            "name": "isOwner",
            "outputs": [
                {
                    "internalType": "bool",
                    "name": "",
                    "type": "bool"
                }
            ],
            "stateMutability": "view",
            "type": "function"
        },
        {
            "inputs": [],
            "name": "owner",
            "outputs": [
                {
                    "internalType": "address",
                    "name": "",
                    "type": "address"
                }
            ],
            "stateMutability": "view",
            "type": "function"
        },
        {
            "inputs": [
                {
                    "internalType": "uint256",
                    "name": "",
                    "type": "uint256"
                }
            ],
            "name": "products",
            "outputs": [
                {
                    "internalType": "string",
                    "name": "Barcode",
                    "type": "string"
                },
                {
                    "internalType": "string",
                    "name": "Name",
                    "type": "string"
                },
                {
                    "internalType": "string",
                    "name": "Group",
                    "type": "string"
                },
                {
                    "internalType": "string",
                    "name": "ImageURL",
                    "type": "string"
                },
                {
                    "internalType": "address",
                    "name": "CreatedBy",
                    "type": "address"
                },
                {
                    "internalType": "uint256",
                    "name": "randId",
                    "type": "uint256"
                }
            ],
            "stateMutability": "view",
            "type": "function"
        },
        {
            "inputs": [],
            "name": "renounceOwnership",
            "outputs": [],
            "stateMutability": "nonpayable",
            "type": "function"
        },
        {
            "inputs": [
                {
                    "internalType": "address",
                    "name": "newOwner",
                    "type": "address"
                }
            ],
            "name": "transferOwnership",
            "outputs": [],
            "stateMutability": "nonpayable",
            "type": "function"
        }
    ],
    "bytecode": "6080604052601060018190556200001890600a620000b7565b6002553480156200002857600080fd5b50600080546001600160a01b0319163390811782556040519091907f8be0079c531659141344cd1fd0a4f28419497f9722a3daafe3b4186f6b6457e0908290a362000198565b600181815b80851115620000af57816000190482111562000093576200009362000182565b80851615620000a157918102915b93841c939080029062000073565b509250929050565b6000620000c58383620000cc565b9392505050565b600082620000dd575060016200017c565b81620000ec575060006200017c565b8160018114620001055760028114620001105762000130565b60019150506200017c565b60ff84111562000124576200012462000182565b50506001821b6200017c565b5060208310610133831016604e8410600b841016171562000155575081810a6200017c565b6200016183836200006e565b806000190482111562000178576200017862000182565b0290505b92915050565b634e487b7160e01b600052601160045260246000fd5b61222180620001a86000396000f3fe60806040523480156200001157600080fd5b5060043610620000ab5760003560e01c80637acc0b20116200006e5780637acc0b20146200013f5780638da5cb5b146200016a5780638f32d59b1462000186578063c29b2f2014620001a5578063f2fde38b14620001be57600080fd5b8063175898b514620000b05780631d9a4d7714620000c9578063293d06e814620000f857806368111cce146200010f578063715018a61462000135575b600080fd5b620000c7620000c13660046200176b565b620001d5565b005b620000e0620000da366004620016fa565b6200026f565b604051620000ef919062001978565b60405180910390f35b620000c76200010936600462001645565b6200048a565b62000126620001203660046200158a565b62000561565b604051620000ef919062001afa565b620000c76200085b565b6200015662000150366004620017e8565b620008bd565b604051620000ef969594939291906200198d565b6000546040516001600160a01b039091168152602001620000ef565b6000546001600160a01b031633146040519015158152602001620000ef565b620001af62000b54565b604051620000ef919062001913565b620000c7620001cf36600462001561565b62000e40565b6000546001600160a01b03163314620001ed57600080fd5b600082118062000233575060408051600081526020810180835281519020916200021a91869101620018c2565b6040516020818303038152906040528051906020012014155b6200025b5760405162461bcd60e51b8152600401620002529062001aaf565b60405180910390fd5b620002698484848462000e66565b50505050565b6060600080831180620002b8575060408051600081526020810180835281519020916200029f91879101620018c2565b6040516020818303038152906040528051906020012014155b620002d75760405162461bcd60e51b8152600401620002529062001aaf565b82156200034557600085620002ec8562001014565b604051602001620002ff929190620018e0565b6040516020818303038152906040529050600681604051620003229190620018c2565b908152604051908190036020019020546001600160a01b03169150620003da9050565b60408051600081526020810180835281519020916200036791879101620018c2565b6040516020818303038152906040528051906020012014620003da57600085856040516020016200039a929190620018e0565b6040516020818303038152906040529050600781604051620003bd9190620018c2565b908152604051908190036020019020546001600160a01b03169150505b6001600160a01b0381166200040057505060408051602081019091526000815262000483565b6000819050806001600160a01b0316639cf60cb46040518163ffffffff1660e01b815260040160006040518083038186803b1580156200043f57600080fd5b505afa15801562000454573d6000803e3d6000fd5b505050506040513d6000823e601f3d908101601f191682016040526200047e9190810190620015c9565b925050505b9392505050565b6000546001600160a01b03163314620004a257600080fd5b600584604051620004b49190620018c2565b9081526020016040518091039020546000146200050d5760405162461bcd60e51b81526020600482015260166024820152752130b931b7b2329030b63932b0b23c9030b23232b21760511b604482015260640162000252565b60038351101580156200052257506040835111155b6200052c57600080fd5b60068451116200053b57600080fd5b600062000548856200114d565b90506200055a8585858533866200118e565b5050505050565b620005a46040518060c001604052806060815260200160608152602001606081526020016060815260200160006001600160a01b03168152602001600081525090565b600482604051620005b69190620018c2565b90815260200160405180910390206040518060c0016040529081600082018054620005e19062001be9565b80601f01602080910402602001604051908101604052809291908181526020018280546200060f9062001be9565b8015620006605780601f10620006345761010080835404028352916020019162000660565b820191906000526020600020905b8154815290600101906020018083116200064257829003601f168201915b505050505081526020016001820180546200067b9062001be9565b80601f0160208091040260200160405190810160405280929190818152602001828054620006a99062001be9565b8015620006fa5780601f10620006ce57610100808354040283529160200191620006fa565b820191906000526020600020905b815481529060010190602001808311620006dc57829003601f168201915b50505050508152602001600282018054620007159062001be9565b80601f0160208091040260200160405190810160405280929190818152602001828054620007439062001be9565b8015620007945780601f10620007685761010080835404028352916020019162000794565b820191906000526020600020905b8154815290600101906020018083116200077657829003601f168201915b50505050508152602001600382018054620007af9062001be9565b80601f0160208091040260200160405190810160405280929190818152602001828054620007dd9062001be9565b80156200082e5780601f1062000802576101008083540402835291602001916200082e565b820191906000526020600020905b8154815290600101906020018083116200081057829003601f168201915b505050918352505060048201546001600160a01b0316602082015260059091015460409091015292915050565b6000546001600160a01b031633146200087357600080fd5b600080546040516001600160a01b03909116907f8be0079c531659141344cd1fd0a4f28419497f9722a3daafe3b4186f6b6457e0908390a3600080546001600160a01b0319169055565b60038181548110620008ce57600080fd5b9060005260206000209060060201600091509050806000018054620008f39062001be9565b80601f0160208091040260200160405190810160405280929190818152602001828054620009219062001be9565b8015620009725780601f10620009465761010080835404028352916020019162000972565b820191906000526020600020905b8154815290600101906020018083116200095457829003601f168201915b505050505090806001018054620009899062001be9565b80601f0160208091040260200160405190810160405280929190818152602001828054620009b79062001be9565b801562000a085780601f10620009dc5761010080835404028352916020019162000a08565b820191906000526020600020905b815481529060010190602001808311620009ea57829003601f168201915b50505050509080600201805462000a1f9062001be9565b80601f016020809104026020016040519081016040528092919081815260200182805462000a4d9062001be9565b801562000a9e5780601f1062000a725761010080835404028352916020019162000a9e565b820191906000526020600020905b81548152906001019060200180831162000a8057829003601f168201915b50505050509080600301805462000ab59062001be9565b80601f016020809104026020016040519081016040528092919081815260200182805462000ae39062001be9565b801562000b345780601f1062000b085761010080835404028352916020019162000b34565b820191906000526020600020905b81548152906001019060200180831162000b1657829003601f168201915b50505050600483015460059093015491926001600160a01b031691905086565b60606003805480602002602001604051908101604052809291908181526020016000905b8282101562000e3757838290600052602060002090600602016040518060c001604052908160008201805462000bae9062001be9565b80601f016020809104026020016040519081016040528092919081815260200182805462000bdc9062001be9565b801562000c2d5780601f1062000c015761010080835404028352916020019162000c2d565b820191906000526020600020905b81548152906001019060200180831162000c0f57829003601f168201915b5050505050815260200160018201805462000c489062001be9565b80601f016020809104026020016040519081016040528092919081815260200182805462000c769062001be9565b801562000cc75780601f1062000c9b5761010080835404028352916020019162000cc7565b820191906000526020600020905b81548152906001019060200180831162000ca957829003601f168201915b5050505050815260200160028201805462000ce29062001be9565b80601f016020809104026020016040519081016040528092919081815260200182805462000d109062001be9565b801562000d615780601f1062000d355761010080835404028352916020019162000d61565b820191906000526020600020905b81548152906001019060200180831162000d4357829003601f168201915b5050505050815260200160038201805462000d7c9062001be9565b80601f016020809104026020016040519081016040528092919081815260200182805462000daa9062001be9565b801562000dfb5780601f1062000dcf5761010080835404028352916020019162000dfb565b820191906000526020600020905b81548152906001019060200180831162000ddd57829003601f168201915b505050918352505060048201546001600160a01b0316602080830191909152600590920154604090910152908252600192909201910162000b78565b50505050905090565b6000546001600160a01b0316331462000e5857600080fd5b62000e6381620013e7565b50565b60008484848460405162000e7a9062001456565b62000e89949392919062001a3b565b604051809103906000f08015801562000ea6573d6000803e3d6000fd5b509050821562000f265760008562000ebe8562001014565b60405160200162000ed1929190620018e0565b60405160208183030381529060405290508160068260405162000ef59190620018c2565b90815260405190819003602001902080546001600160a01b03929092166001600160a01b0319909216919091179055505b604080516000815260208101808352815190209162000f4891879101620018c2565b604051602081830303815290604052805190602001201462000fd0576000858560405160200162000f7b929190620018e0565b60405160208183030381529060405290508160078260405162000f9f9190620018c2565b90815260405190819003602001902080546001600160a01b03929092166001600160a01b0319909216919091179055505b7f1b7bda113870bba5c54057a9e7d6ab7e8bc0c64e924fd0f555c777b286cd1097858585604051620010059392919062001a01565b60405180910390a15050505050565b606081620010395750506040805180820190915260018152600360fc1b602082015290565b8160005b8115620010695780620010508162001c26565b9150620010619050600a8362001b89565b91506200103d565b60008167ffffffffffffffff8111156200109357634e487b7160e01b600052604160045260246000fd5b6040519080825280601f01601f191660200182016040528015620010be576020820181803683370190505b508593509050815b83156200114457620010da600a8562001c44565b620010e790603062001b6e565b60f81b82620010f68362001bcf565b925082815181106200111857634e487b7160e01b600052603260045260246000fd5b60200101906001600160f81b031916908160001a9053506200113c600a8562001b89565b9350620010c6565b50949350505050565b60008082604051602001620011639190620018c2565b6040516020818303038152906040528051906020012060001c90506002548162000483919062001c44565b6040805160c0810182528781526020808201889052918101869052606081018590526001600160a01b038416608082015260a0810183905260038054600181018255600091909152815180519293849360069093027fc2575a0e9e593c00f959f8c92f12db2869c3395a3b0502d05e2516446f71f85b019262001215928492019062001464565b50602082810151805162001230926001850192019062001464565b50604082015180516200124e91600284019160209091019062001464565b50606082015180516200126c91600384019160209091019062001464565b5060808201518160040160006101000a8154816001600160a01b0302191690836001600160a01b0316021790555060a08201518160050155505080600488604051620012b99190620018c2565b90815260200160405180910390206000820151816000019080519060200190620012e592919062001464565b50602082810151805162001300926001850192019062001464565b50604082015180516200131e91600284019160209091019062001464565b50606082015180516200133c91600384019160209091019062001464565b5060808201516004820180546001600160a01b0319166001600160a01b0390921691909117905560a0909101516005918201556040516200137f908990620018c2565b90815260405190819003602001902080549060006200139e8362001c26565b91905055507f2e165cec6f27aaa90f62be1d6ecb7f541fab93a61119352647e25eebbbd667418783604051620013d692919062001a8b565b60405180910390a150505050505050565b6001600160a01b038116620013fb57600080fd5b600080546040516001600160a01b03808516939216917f8be0079c531659141344cd1fd0a4f28419497f9722a3daafe3b4186f6b6457e091a3600080546001600160a01b0319166001600160a01b0392909216919091179055565b61054e8062001c9e83390190565b828054620014729062001be9565b90600052602060002090601f016020900481019282620014965760008555620014e1565b82601f10620014b157805160ff1916838001178555620014e1565b82800160010185558215620014e1579182015b82811115620014e1578251825591602001919060010190620014c4565b50620014ef929150620014f3565b5090565b5b80821115620014ef5760008155600101620014f4565b600082601f8301126200151b578081fd5b8135620015326200152c8262001b43565b62001b0f565b81815284602083860101111562001547578283fd5b816020850160208301379081016020019190915292915050565b60006020828403121562001573578081fd5b81356001600160a01b038116811462000483578182fd5b6000602082840312156200159c578081fd5b813567ffffffffffffffff811115620015b3578182fd5b620015c1848285016200150a565b949350505050565b600060208284031215620015db578081fd5b815167ffffffffffffffff811115620015f2578182fd5b8201601f8101841362001603578182fd5b8051620016146200152c8262001b43565b81815285602083850101111562001629578384fd5b6200163c82602083016020860162001ba0565b95945050505050565b600080600080608085870312156200165b578283fd5b843567ffffffffffffffff8082111562001673578485fd5b62001681888389016200150a565b9550602087013591508082111562001697578485fd5b620016a5888389016200150a565b94506040870135915080821115620016bb578384fd5b620016c9888389016200150a565b93506060870135915080821115620016df578283fd5b50620016ee878288016200150a565b91505092959194509250565b6000806000606084860312156200170f578283fd5b833567ffffffffffffffff8082111562001727578485fd5b62001735878388016200150a565b945060208601359150808211156200174b578384fd5b506200175a868287016200150a565b925050604084013590509250925092565b6000806000806080858703121562001781578384fd5b843567ffffffffffffffff8082111562001799578586fd5b620017a7888389016200150a565b95506020870135915080821115620017bd578485fd5b620017cb888389016200150a565b9450604087013593506060870135915080821115620016df578283fd5b600060208284031215620017fa578081fd5b5035919050565b600081518084526200181b81602086016020860162001ba0565b601f01601f19169290920160200192915050565b6000815160c084526200184660c085018262001801565b90506020830151848203602086015262001861828262001801565b915050604083015184820360408601526200187d828262001801565b9150506060830151848203606086015262001899828262001801565b6080858101516001600160a01b03169087015260a0948501519590940194909452509092915050565b60008251620018d681846020870162001ba0565b9190910192915050565b60008351620018f481846020880162001ba0565b8351908301906200190a81836020880162001ba0565b01949350505050565b6000602080830181845280855180835260408601915060408160051b8701019250838701855b828110156200196b57603f19888603018452620019588583516200182f565b9450928501929085019060010162001939565b5092979650505050505050565b60208152600062000483602083018462001801565b60c081526000620019a260c083018962001801565b8281036020840152620019b6818962001801565b90508281036040840152620019cc818862001801565b90508281036060840152620019e2818762001801565b6001600160a01b03959095166080840152505060a00152949350505050565b60608152600062001a16606083018662001801565b828103602084015262001a2a818662001801565b915050826040830152949350505050565b60808152600062001a50608083018762001801565b828103602084015262001a64818762001801565b9050846040840152828103606084015262001a80818562001801565b979650505050505050565b60408152600062001aa0604083018562001801565b90508260208301529392505050565b6020808252602b908201527f45787069726174696f6e2044617465206f72204c6f74204964206d757374206260408201526a3290383937bb34b232b21760a91b606082015260800190565b6020815260006200048360208301846200182f565b604051601f8201601f1916810167ffffffffffffffff8111828210171562001b3b5762001b3b62001c87565b604052919050565b600067ffffffffffffffff82111562001b605762001b6062001c87565b50601f01601f191660200190565b6000821982111562001b845762001b8462001c5b565b500190565b60008262001b9b5762001b9b62001c71565b500490565b60005b8381101562001bbd57818101518382015260200162001ba3565b83811115620002695750506000910152565b60008162001be15762001be162001c5b565b506000190190565b600181811c9082168062001bfe57607f821691505b6020821081141562001c2057634e487b7160e01b600052602260045260246000fd5b50919050565b600060001982141562001c3d5762001c3d62001c5b565b5060010190565b60008262001c565762001c5662001c71565b500690565b634e487b7160e01b600052601160045260246000fd5b634e487b7160e01b600052601260045260246000fd5b634e487b7160e01b600052604160045260246000fdfe608060405234801561001057600080fd5b5060405161054e38038061054e83398101604081905261002f916101ba565b8351610042906000906020870190610079565b508251610056906001906020860190610079565b506002829055805161006f906003906020840190610079565b5050505050610298565b82805461008590610247565b90600052602060002090601f0160209004810192826100a757600085556100ed565b82601f106100c057805160ff19168380011785556100ed565b828001600101855582156100ed579182015b828111156100ed5782518255916020019190600101906100d2565b506100f99291506100fd565b5090565b5b808211156100f957600081556001016100fe565b600082601f830112610122578081fd5b81516001600160401b038082111561013c5761013c610282565b604051601f8301601f19908116603f0116810190828211818310171561016457610164610282565b8160405283815260209250868385880101111561017f578485fd5b8491505b838210156101a05785820183015181830184015290820190610183565b838211156101b057848385830101525b9695505050505050565b600080600080608085870312156101cf578384fd5b84516001600160401b03808211156101e5578586fd5b6101f188838901610112565b95506020870151915080821115610206578485fd5b61021288838901610112565b945060408701519350606087015191508082111561022e578283fd5b5061023b87828801610112565b91505092959194509250565b600181811c9082168061025b57607f821691505b6020821081141561027c57634e487b7160e01b600052602260045260246000fd5b50919050565b634e487b7160e01b600052604160045260246000fd5b6102a7806102a76000396000f3fe608060405234801561001057600080fd5b50600436106100575760003560e01c80634e97220d1461005c5780635c2fad3b1461007a578063831d224714610091578063952339dc146100995780639cf60cb4146100a1575b600080fd5b6100646100a9565b60405161007191906101e3565b60405180910390f35b61008360025481565b604051908152602001610071565b610064610137565b610064610144565b610064610151565b600380546100b690610236565b80601f01602080910402602001604051908101604052809291908181526020018280546100e290610236565b801561012f5780601f106101045761010080835404028352916020019161012f565b820191906000526020600020905b81548152906001019060200180831161011257829003601f168201915b505050505081565b600180546100b690610236565b600080546100b690610236565b60606003805461016090610236565b80601f016020809104026020016040519081016040528092919081815260200182805461018c90610236565b80156101d95780601f106101ae576101008083540402835291602001916101d9565b820191906000526020600020905b8154815290600101906020018083116101bc57829003601f168201915b5050505050905090565b6000602080835283518082850152825b8181101561020f578581018301518582016040015282016101f3565b818111156102205783604083870101525b50601f01601f1916929092016040019392505050565b600181811c9082168061024a57607f821691505b6020821081141561026b57634e487b7160e01b600052602260045260246000fd5b5091905056fea2646970667358221220f5c6405ff7b0870dc347219e8d37709c90f1e0b9e7a186cc338eec5ad4bd495b64736f6c63430008040033a2646970667358221220cb0aa3ca5eeec8e91d99a29b9057b4634de71b81ff52ab3362b787f97c92a8cc64736f6c63430008040033",
    "sourcePath": "d:/Projects/VSCode/ProductTraceDemo/Demo/contracts/ProductContract.sol",
    "compiler": {
        "name": "solc",
        "version": "0.8.4+commit.c7e474f2"
    },
    "functionHashes": {
        "createNewProduct(string,string,string,string)": "293d06e8",
        "createNewTrace(string,string,uint256,string)": "175898b5",
        "getProduct(string)": "68111cce",
        "getProducts()": "c29b2f20",
        "getTrace(string,string,uint256)": "1d9a4d77",
        "isOwner()": "8f32d59b",
        "owner()": "8da5cb5b",
        "products(uint256)": "7acc0b20",
        "renounceOwnership()": "715018a6",
        "transferOwnership(address)": "f2fde38b"
    },
    "gasEstimates": {
        "creation": {
            "codeDepositCost": "1747400",
            "executionCost": "64560",
            "totalCost": "1811960"
        },
        "external": {
            "createNewProduct(string,string,string,string)": "infinite",
            "createNewTrace(string,string,uint256,string)": "infinite",
            "getProduct(string)": "infinite",
            "getProducts()": "infinite",
            "getTrace(string,string,uint256)": "infinite",
            "isOwner()": "1053",
            "owner()": "1023",
            "products(uint256)": "infinite",
            "renounceOwnership()": "24254",
            "transferOwnership(address)": "24482"
        },
        "internal": {
            "_createProduct(string memory,string memory,string memory,string memory,address,uint256)": "infinite",
            "_createTrace(string memory,string memory,uint256,string memory)": "infinite",
            "_generateId(string memory)": "infinite"
        }
    }
}