{
    "contractName": "TraceabilityContract",
    "abi": [
        {
            "anonymous": false,
            "inputs": [
                {
                    "indexed": false,
                    "internalType": "string",
                    "name": "barcode",
                    "type": "string"
                },
                {
                    "indexed": false,
                    "internalType": "uint256",
                    "name": "randId",
                    "type": "uint256"
                }
            ],
            "name": "NewProduct",
            "type": "event"
        },
        {
            "inputs": [
                {
                    "internalType": "string",
                    "name": "_barcode",
                    "type": "string"
                },
                {
                    "internalType": "string",
                    "name": "_name",
                    "type": "string"
                },
                {
                    "internalType": "string",
                    "name": "_group",
                    "type": "string"
                },
                {
                    "internalType": "string",
                    "name": "_imageUrl",
                    "type": "string"
                }
            ],
            "name": "createNewProduct",
            "outputs": [],
            "stateMutability": "nonpayable",
            "type": "function"
        },
        {
            "inputs": [
                {
                    "internalType": "string",
                    "name": "_barcode",
                    "type": "string"
                }
            ],
            "name": "getProduct",
            "outputs": [
                {
                    "components": [
                        {
                            "internalType": "string",
                            "name": "Barcode",
                            "type": "string"
                        },
                        {
                            "internalType": "string",
                            "name": "Name",
                            "type": "string"
                        },
                        {
                            "internalType": "string",
                            "name": "Group",
                            "type": "string"
                        },
                        {
                            "internalType": "string",
                            "name": "ImageURL",
                            "type": "string"
                        },
                        {
                            "internalType": "address",
                            "name": "CreatedBy",
                            "type": "address"
                        },
                        {
                            "internalType": "uint256",
                            "name": "randId",
                            "type": "uint256"
                        }
                    ],
                    "internalType": "struct TraceabilityContract.Product",
                    "name": "",
                    "type": "tuple"
                }
            ],
            "stateMutability": "view",
            "type": "function"
        },
        {
            "inputs": [],
            "name": "getProducts",
            "outputs": [
                {
                    "components": [
                        {
                            "internalType": "string",
                            "name": "Barcode",
                            "type": "string"
                        },
                        {
                            "internalType": "string",
                            "name": "Name",
                            "type": "string"
                        },
                        {
                            "internalType": "string",
                            "name": "Group",
                            "type": "string"
                        },
                        {
                            "internalType": "string",
                            "name": "ImageURL",
                            "type": "string"
                        },
                        {
                            "internalType": "address",
                            "name": "CreatedBy",
                            "type": "address"
                        },
                        {
                            "internalType": "uint256",
                            "name": "randId",
                            "type": "uint256"
                        }
                    ],
                    "internalType": "struct TraceabilityContract.Product[]",
                    "name": "",
                    "type": "tuple[]"
                }
            ],
            "stateMutability": "view",
            "type": "function"
        },
        {
            "inputs": [
                {
                    "internalType": "uint256",
                    "name": "",
                    "type": "uint256"
                }
            ],
            "name": "products",
            "outputs": [
                {
                    "internalType": "string",
                    "name": "Barcode",
                    "type": "string"
                },
                {
                    "internalType": "string",
                    "name": "Name",
                    "type": "string"
                },
                {
                    "internalType": "string",
                    "name": "Group",
                    "type": "string"
                },
                {
                    "internalType": "string",
                    "name": "ImageURL",
                    "type": "string"
                },
                {
                    "internalType": "address",
                    "name": "CreatedBy",
                    "type": "address"
                },
                {
                    "internalType": "uint256",
                    "name": "randId",
                    "type": "uint256"
                }
            ],
            "stateMutability": "view",
            "type": "function"
        }
    ],
    "bytecode": "6080604052601060008190556200001890600a62000078565b6001553480156200002857600080fd5b5062000159565b600181815b808511156200007057816000190482111562000054576200005462000143565b808516156200006257918102915b93841c939080029062000034565b509250929050565b60006200008683836200008d565b9392505050565b6000826200009e575060016200013d565b81620000ad575060006200013d565b8160018114620000c65760028114620000d157620000f1565b60019150506200013d565b60ff841115620000e557620000e562000143565b50506001821b6200013d565b5060208310610133831016604e8410600b841016171562000116575081810a6200013d565b6200012283836200002f565b806000190482111562000139576200013962000143565b0290505b92915050565b634e487b7160e01b600052601160045260246000fd5b6110dd80620001696000396000f3fe608060405234801561001057600080fd5b506004361061004c5760003560e01c8063293d06e81461005157806368111cce146100665780637acc0b201461008f578063c29b2f20146100b4575b600080fd5b61006461005f366004610d4a565b6100c9565b005b610079610074366004610d0f565b610156565b6040516100869190610fcc565b60405180910390f35b6100a261009d366004610df2565b61042d565b60405161008696959493929190610f3e565b6100bc6106a3565b6040516100869190610edd565b6004846040516100d99190610ec1565b9081526020016040518091039020546000146101345760405162461bcd60e51b81526020600482015260166024820152752130b931b7b2329030b63932b0b23c9030b23232b21760511b604482015260640160405180910390fd5b600061013f8561096d565b905061014f8585858533866109b1565b5050505050565b6101986040518060c001604052806060815260200160608152602001606081526020016060815260200160006001600160a01b03168152602001600081525090565b6003826040516101a89190610ec1565b90815260200160405180910390206040518060c00160405290816000820180546101d19061100f565b80601f01602080910402602001604051908101604052809291908181526020018280546101fd9061100f565b801561024a5780601f1061021f5761010080835404028352916020019161024a565b820191906000526020600020905b81548152906001019060200180831161022d57829003601f168201915b505050505081526020016001820180546102639061100f565b80601f016020809104026020016040519081016040528092919081815260200182805461028f9061100f565b80156102dc5780601f106102b1576101008083540402835291602001916102dc565b820191906000526020600020905b8154815290600101906020018083116102bf57829003601f168201915b505050505081526020016002820180546102f59061100f565b80601f01602080910402602001604051908101604052809291908181526020018280546103219061100f565b801561036e5780601f106103435761010080835404028352916020019161036e565b820191906000526020600020905b81548152906001019060200180831161035157829003601f168201915b505050505081526020016003820180546103879061100f565b80601f01602080910402602001604051908101604052809291908181526020018280546103b39061100f565b80156104005780601f106103d557610100808354040283529160200191610400565b820191906000526020600020905b8154815290600101906020018083116103e357829003601f168201915b505050918352505060048201546001600160a01b0316602082015260059091015460409091015292915050565b6002818154811061043d57600080fd5b90600052602060002090600602016000915090508060000180546104609061100f565b80601f016020809104026020016040519081016040528092919081815260200182805461048c9061100f565b80156104d95780601f106104ae576101008083540402835291602001916104d9565b820191906000526020600020905b8154815290600101906020018083116104bc57829003601f168201915b5050505050908060010180546104ee9061100f565b80601f016020809104026020016040519081016040528092919081815260200182805461051a9061100f565b80156105675780601f1061053c57610100808354040283529160200191610567565b820191906000526020600020905b81548152906001019060200180831161054a57829003601f168201915b50505050509080600201805461057c9061100f565b80601f01602080910402602001604051908101604052809291908181526020018280546105a89061100f565b80156105f55780601f106105ca576101008083540402835291602001916105f5565b820191906000526020600020905b8154815290600101906020018083116105d857829003601f168201915b50505050509080600301805461060a9061100f565b80601f01602080910402602001604051908101604052809291908181526020018280546106369061100f565b80156106835780601f1061065857610100808354040283529160200191610683565b820191906000526020600020905b81548152906001019060200180831161066657829003601f168201915b50505050600483015460059093015491926001600160a01b031691905086565b60606002805480602002602001604051908101604052809291908181526020016000905b8282101561096457838290600052602060002090600602016040518060c00160405290816000820180546106fa9061100f565b80601f01602080910402602001604051908101604052809291908181526020018280546107269061100f565b80156107735780601f1061074857610100808354040283529160200191610773565b820191906000526020600020905b81548152906001019060200180831161075657829003601f168201915b5050505050815260200160018201805461078c9061100f565b80601f01602080910402602001604051908101604052809291908181526020018280546107b89061100f565b80156108055780601f106107da57610100808354040283529160200191610805565b820191906000526020600020905b8154815290600101906020018083116107e857829003601f168201915b5050505050815260200160028201805461081e9061100f565b80601f016020809104026020016040519081016040528092919081815260200182805461084a9061100f565b80156108975780601f1061086c57610100808354040283529160200191610897565b820191906000526020600020905b81548152906001019060200180831161087a57829003601f168201915b505050505081526020016003820180546108b09061100f565b80601f01602080910402602001604051908101604052809291908181526020018280546108dc9061100f565b80156109295780601f106108fe57610100808354040283529160200191610929565b820191906000526020600020905b81548152906001019060200180831161090c57829003601f168201915b505050918352505060048201546001600160a01b031660208083019190915260059092015460409091015290825260019290920191016106c7565b50505050905090565b600080826040516020016109819190610ec1565b6040516020818303038152906040528051906020012060001c9050600154816109aa9190611071565b9392505050565b6040805160c0810182528781526020808201889052918101869052606081018590526001600160a01b038416608082015260a0810183905260028054600181018255600091909152815180519293849360069093027f405787fa12a823e0f2b7631cc41b3ba8828b3321ca811111fa75cd3aa3bb5ace0192610a369284920190610bef565b506020828101518051610a4f9260018501920190610bef565b5060408201518051610a6b916002840191602090910190610bef565b5060608201518051610a87916003840191602090910190610bef565b5060808201516004820180546001600160a01b0319166001600160a01b0390921691909117905560a0909101516005909101556040518190600390610acd908a90610ec1565b90815260200160405180910390206000820151816000019080519060200190610af7929190610bef565b506020828101518051610b109260018501920190610bef565b5060408201518051610b2c916002840191602090910190610bef565b5060608201518051610b48916003840191602090910190610bef565b506080820151600482810180546001600160a01b0319166001600160a01b039093169290921790915560a090920151600590910155604051610b8b908990610ec1565b9081526040519081900360200190208054906000610ba88361104a565b91905055507f2e165cec6f27aaa90f62be1d6ecb7f541fab93a61119352647e25eebbbd667418783604051610bde929190610faa565b60405180910390a150505050505050565b828054610bfb9061100f565b90600052602060002090601f016020900481019282610c1d5760008555610c63565b82601f10610c3657805160ff1916838001178555610c63565b82800160010185558215610c63579182015b82811115610c63578251825591602001919060010190610c48565b50610c6f929150610c73565b5090565b5b80821115610c6f5760008155600101610c74565b600082601f830112610c98578081fd5b813567ffffffffffffffff80821115610cb357610cb3611091565b604051601f8301601f19908116603f01168101908282118183101715610cdb57610cdb611091565b81604052838152866020858801011115610cf3578485fd5b8360208701602083013792830160200193909352509392505050565b600060208284031215610d20578081fd5b813567ffffffffffffffff811115610d36578182fd5b610d4284828501610c88565b949350505050565b60008060008060808587031215610d5f578283fd5b843567ffffffffffffffff80821115610d76578485fd5b610d8288838901610c88565b95506020870135915080821115610d97578485fd5b610da388838901610c88565b94506040870135915080821115610db8578384fd5b610dc488838901610c88565b93506060870135915080821115610dd9578283fd5b50610de687828801610c88565b91505092959194509250565b600060208284031215610e03578081fd5b5035919050565b60008151808452610e22816020860160208601610fdf565b601f01601f19169290920160200192915050565b6000815160c08452610e4b60c0850182610e0a565b905060208301518482036020860152610e648282610e0a565b91505060408301518482036040860152610e7e8282610e0a565b91505060608301518482036060860152610e988282610e0a565b6080858101516001600160a01b03169087015260a0948501519590940194909452509092915050565b60008251610ed3818460208701610fdf565b9190910192915050565b6000602080830181845280855180835260408601915060408160051b8701019250838701855b82811015610f3157603f19888603018452610f1f858351610e36565b94509285019290850190600101610f03565b5092979650505050505050565b60c081526000610f5160c0830189610e0a565b8281036020840152610f638189610e0a565b90508281036040840152610f778188610e0a565b90508281036060840152610f8b8187610e0a565b6001600160a01b03959095166080840152505060a00152949350505050565b604081526000610fbd6040830185610e0a565b90508260208301529392505050565b6020815260006109aa6020830184610e36565b60005b83811015610ffa578181015183820152602001610fe2565b83811115611009576000848401525b50505050565b600181811c9082168061102357607f821691505b6020821081141561104457634e487b7160e01b600052602260045260246000fd5b50919050565b600060001982141561106a57634e487b7160e01b81526011600452602481fd5b5060010190565b60008261108c57634e487b7160e01b81526012600452602481fd5b500690565b634e487b7160e01b600052604160045260246000fdfea2646970667358221220253595820da7f089b88b6ff11d88bed1e7df07cfadb9b915ac1581944efc8af064736f6c63430008040033",
    "sourcePath": "d:/Projects/VSCode/ProductTraceDemo/Demo/contracts/TraceabilityContract.sol",
    "compiler": {
        "name": "solc",
        "version": "0.8.4+commit.c7e474f2"
    },
    "functionHashes": {
        "createNewProduct(string,string,string,string)": "293d06e8",
        "getProduct(string)": "68111cce",
        "getProducts()": "c29b2f20",
        "products(uint256)": "7acc0b20"
    },
    "gasEstimates": {
        "creation": {
            "codeDepositCost": "863400",
            "executionCost": "41247",
            "totalCost": "904647"
        },
        "external": {
            "createNewProduct(string,string,string,string)": "infinite",
            "getProduct(string)": "infinite",
            "getProducts()": "infinite",
            "products(uint256)": "infinite"
        },
        "internal": {
            "_createProduct(string memory,string memory,string memory,string memory,address,uint256)": "infinite",
            "_generateId(string memory)": "infinite"
        }
    }
}